{
  "contractName": "UserDataStorage",
  "abi": [
    {
      "inputs": [],
      "stateMutability": "nonpayable",
      "type": "constructor"
    },
    {
      "inputs": [],
      "name": "owner",
      "outputs": [
        {
          "internalType": "address",
          "name": "",
          "type": "address"
        }
      ],
      "stateMutability": "view",
      "type": "function"
    },
    {
      "inputs": [
        {
          "internalType": "address",
          "name": "",
          "type": "address"
        }
      ],
      "name": "users",
      "outputs": [
        {
          "internalType": "string",
          "name": "data",
          "type": "string"
        }
      ],
      "stateMutability": "view",
      "type": "function"
    },
    {
      "inputs": [
        {
          "internalType": "string",
          "name": "_userData",
          "type": "string"
        }
      ],
      "name": "login",
      "outputs": [],
      "stateMutability": "nonpayable",
      "type": "function"
    }
  ],
  "bytecode": "0x608060405234801561001057600080fd5b50336000806101000a81548173ffffffffffffffffffffffffffffffffffffffff021916908373ffffffffffffffffffffffffffffffffffffffff160217905550610992806100606000396000f3fe608060405234801561001057600080fd5b506004361061005e576000357c0100000000000000000000000000000000000000000000000000000000900480633a7d280c146100635780638da5cb5b1461007f578063a87430ba1461009d575b600080fd5b61007d600480360381019061007891906103f7565b6100cd565b005b6100876101d3565b6040516100949190610481565b60405180910390f35b6100b760048036038101906100b291906104c8565b6101f7565b6040516100c49190610574565b60405180910390f35b600073ffffffffffffffffffffffffffffffffffffffff163373ffffffffffffffffffffffffffffffffffffffff160361013c576040517f08c379a0000000000000000000000000000000000000000000000000000000008152600401610133906105e2565b60405180910390fd5b6000815111610180576040517f08c379a00000000000000000000000000000000000000000000000000000000081526004016101779061064e565b60405180910390fd5b80600160003373ffffffffffffffffffffffffffffffffffffffff1673ffffffffffffffffffffffffffffffffffffffff16815260200190815260200160002060000190816101cf919061088a565b5050565b60008054906101000a900473ffffffffffffffffffffffffffffffffffffffff1681565b600160205280600052604060002060009150905080600001805461021a9061069d565b80601f01602080910402602001604051908101604052809291908181526020018280546102469061069d565b80156102935780601f1061026857610100808354040283529160200191610293565b820191906000526020600020905b81548152906001019060200180831161027657829003601f168201915b5050505050905081565b6000604051905090565b600080fd5b600080fd5b600080fd5b600080fd5b6000601f19601f8301169050919050565b7f4e487b7100000000000000000000000000000000000000000000000000000000600052604160045260246000fd5b610304826102bb565b810181811067ffffffffffffffff82111715610323576103226102cc565b5b80604052505050565b600061033661029d565b905061034282826102fb565b919050565b600067ffffffffffffffff821115610362576103616102cc565b5b61036b826102bb565b9050602081019050919050565b82818337600083830152505050565b600061039a61039584610347565b61032c565b9050828152602081018484840111156103b6576103b56102b6565b5b6103c1848285610378565b509392505050565b600082601f8301126103de576103dd6102b1565b5b81356103ee848260208601610387565b91505092915050565b60006020828403121561040d5761040c6102a7565b5b600082013567ffffffffffffffff81111561042b5761042a6102ac565b5b610437848285016103c9565b91505092915050565b600073ffffffffffffffffffffffffffffffffffffffff82169050919050565b600061046b82610440565b9050919050565b61047b81610460565b82525050565b60006020820190506104966000830184610472565b92915050565b6104a581610460565b81146104b057600080fd5b50565b6000813590506104c28161049c565b92915050565b6000602082840312156104de576104dd6102a7565b5b60006104ec848285016104b3565b91505092915050565b600081519050919050565b600082825260208201905092915050565b60005b8381101561052f578082015181840152602081019050610514565b60008484015250505050565b6000610546826104f5565b6105508185610500565b9350610560818560208601610511565b610569816102bb565b840191505092915050565b6000602082019050818103600083015261058e818461053b565b905092915050565b7f496e76616c69642073656e646572206164647265737300000000000000000000600082015250565b60006105cc601683610500565b91506105d782610596565b602082019050919050565b600060208201905081810360008301526105fb816105bf565b9050919050565b7f5573657220646174612063616e6e6f7420626520656d70747900000000000000600082015250565b6000610638601983610500565b915061064382610602565b602082019050919050565b600060208201905081810360008301526106678161062b565b9050919050565b7f4e487b7100000000000000000000000000000000000000000000000000000000600052602260045260246000fd5b600060028204905060018216806106b557607f821691505b6020821081036106c8576106c761066e565b5b50919050565b60008190508160005260206000209050919050565b60006020601f8301049050919050565b60008160020a8302905092915050565b6000600883026107337fffffffffffffffffffffffffffffffffffffffffffffffffffffffffffffffff826106f3565b61073d86836106f3565b95508019841693508086168417925050509392505050565b6000819050919050565b6000819050919050565b600061078461077f61077a84610755565b61075f565b610755565b9050919050565b6000819050919050565b61079e83610769565b6107b26107aa8261078b565b848454610703565b825550505050565b600090565b6107c76107ba565b6107d2818484610795565b505050565b5b818110156107f6576107eb6000826107bf565b6001810190506107d8565b5050565b601f82111561083b5761080c816106ce565b610815846106e3565b81016020851015610824578190505b610838610830856106e3565b8301826107d7565b50505b505050565b60008160020a8304905092915050565b600061086160001984600802610840565b1980831691505092915050565b600061087a8383610850565b9150826002028217905092915050565b610893826104f5565b67ffffffffffffffff8111156108ac576108ab6102cc565b5b6108b6825461069d565b6108c18282856107fa565b600060209050601f8311600181146108f457600084156108e2578287015190505b6108ec858261086e565b865550610954565b601f198416610902866106ce565b60005b8281101561092a57848901518255600182019150602085019450602081019050610905565b868310156109475784890151610943601f891682610850565b8355505b6001600288020188555050505b50505050505056fea26469706673582212209ab72ead360b9f24fac803b6ce6303be966f42689cd1c6e702861aac938a09df64736f6c63430008150033",
  "immutableReferences": {},
  "source": "// SPDX-License-Identifier: MIT\r\npragma solidity ^0.8.0;\r\n\r\ncontract UserDataStorage {\r\n    address public owner;\r\n\r\n    struct User {\r\n        string data;\r\n    }\r\n\r\n    mapping(address => User) public users;\r\n\r\n    constructor() {\r\n        owner = msg.sender;\r\n    }\r\n\r\n    function login(string memory _userData) public {\r\n        require(msg.sender != address(0), \"Invalid sender address\");\r\n        require(bytes(_userData).length > 0, \"User data cannot be empty\");\r\n        users[msg.sender].data = _userData;\r\n    }\r\n}\r\n",
  "sourcePath": "D:\\ReactJsApp\\myapp\\blockchain\\contracts\\UserDataStorage.sol",
  "compiler": {
    "name": "solc",
    "version": "0.8.21+commit.d9974bed.Emscripten.clang"
  },
  "schemaVersion": "3.4.16",
  "updatedAt": "2023-09-28T18:29:19.628Z",
  "devdoc": {
    "kind": "dev",
    "methods": {},
    "version": 1
  },
  "userdoc": {
    "kind": "user",
    "methods": {},
    "version": 1
  }
}